{
    "_format": "hh-sol-artifact-1",
    "contractName": "Meetup",
    "sourceName": "contracts/Meetup.sol",
    "abi": [
        {
            "anonymous": false,
            "inputs": [
                {
                    "indexed": false,
                    "internalType": "bytes32",
                    "name": "meetID",
                    "type": "bytes32"
                },
                {
                    "indexed": false,
                    "internalType": "address",
                    "name": "attendeeAddress",
                    "type": "address"
                }
            ],
            "name": "ConfirmedAttendee",
            "type": "event"
        },
        {
            "anonymous": false,
            "inputs": [
                {
                    "indexed": false,
                    "internalType": "bytes32",
                    "name": "meetID",
                    "type": "bytes32"
                }
            ],
            "name": "DepositsPaidOut",
            "type": "event"
        },
        {
            "anonymous": false,
            "inputs": [
                {
                    "indexed": false,
                    "internalType": "bytes32",
                    "name": "meetID",
                    "type": "bytes32"
                },
                {
                    "indexed": false,
                    "internalType": "address",
                    "name": "creatorAddress",
                    "type": "address"
                },
                {
                    "indexed": false,
                    "internalType": "uint256",
                    "name": "meetTimestamp",
                    "type": "uint256"
                },
                {
                    "indexed": false,
                    "internalType": "uint256",
                    "name": "maxCapacity",
                    "type": "uint256"
                },
                {
                    "indexed": false,
                    "internalType": "uint256",
                    "name": "deposit",
                    "type": "uint256"
                },
                {
                    "indexed": false,
                    "internalType": "string",
                    "name": "meetCID",
                    "type": "string"
                }
            ],
            "name": "NewMeetCreated",
            "type": "event"
        },
        {
            "anonymous": false,
            "inputs": [
                {
                    "indexed": false,
                    "internalType": "bytes32",
                    "name": "meetID",
                    "type": "bytes32"
                },
                {
                    "indexed": false,
                    "internalType": "address",
                    "name": "attendeeAddress",
                    "type": "address"
                }
            ],
            "name": "NewRSVP",
            "type": "event"
        },
        {
            "inputs": [
                {
                    "internalType": "bytes32",
                    "name": "meetId",
                    "type": "bytes32"
                }
            ],
            "name": "confirmAllAttendees",
            "outputs": [],
            "stateMutability": "nonpayable",
            "type": "function"
        },
        {
            "inputs": [
                {
                    "internalType": "bytes32",
                    "name": "meetId",
                    "type": "bytes32"
                },
                {
                    "internalType": "address",
                    "name": "attendee",
                    "type": "address"
                }
            ],
            "name": "confirmAttendee",
            "outputs": [],
            "stateMutability": "nonpayable",
            "type": "function"
        },
        {
            "inputs": [
                {
                    "internalType": "uint256",
                    "name": "meetTimestamp",
                    "type": "uint256"
                },
                {
                    "internalType": "uint256",
                    "name": "deposit",
                    "type": "uint256"
                },
                {
                    "internalType": "uint256",
                    "name": "maxCapacity",
                    "type": "uint256"
                },
                {
                    "internalType": "string",
                    "name": "meetCID",
                    "type": "string"
                }
            ],
            "name": "createNewMeet",
            "outputs": [],
            "stateMutability": "nonpayable",
            "type": "function"
        },
        {
            "inputs": [
                {
                    "internalType": "bytes32",
                    "name": "meetId",
                    "type": "bytes32"
                }
            ],
            "name": "createNewRSVP",
            "outputs": [],
            "stateMutability": "payable",
            "type": "function"
        },
        {
            "inputs": [
                {
                    "internalType": "bytes32",
                    "name": "",
                    "type": "bytes32"
                }
            ],
            "name": "idToMeet",
            "outputs": [
                {
                    "internalType": "bytes32",
                    "name": "meetId",
                    "type": "bytes32"
                },
                {
                    "internalType": "string",
                    "name": "meetCID",
                    "type": "string"
                },
                {
                    "internalType": "address",
                    "name": "meetOwner",
                    "type": "address"
                },
                {
                    "internalType": "uint256",
                    "name": "meetTimestamp",
                    "type": "uint256"
                },
                {
                    "internalType": "uint256",
                    "name": "maxCapacity",
                    "type": "uint256"
                },
                {
                    "internalType": "uint256",
                    "name": "deposit",
                    "type": "uint256"
                },
                {
                    "internalType": "bool",
                    "name": "paidOut",
                    "type": "bool"
                }
            ],
            "stateMutability": "view",
            "type": "function"
        },
        {
            "inputs": [
                {
                    "internalType": "bytes32",
                    "name": "meetId",
                    "type": "bytes32"
                }
            ],
            "name": "withdrawUnclaimedDeposits",
            "outputs": [],
            "stateMutability": "nonpayable",
            "type": "function"
        }
    ],
    "bytecode": "0x608060405234801561001057600080fd5b50612370806100206000396000f3fe6080604052600436106100555760003560e01c806311ba837b1461005a57806317f0165a146100835780636dcdf2cd1461009f57806379747571146100c8578063acdbe012146100f1578063d812ff361461011a575b600080fd5b34801561006657600080fd5b50610081600480360381019061007c91906114e1565b61015d565b005b61009d6004803603810190610098919061159f565b610372565b005b3480156100ab57600080fd5b506100c660048036038101906100c1919061162a565b6105de565b005b3480156100d457600080fd5b506100ef60048036038101906100ea919061159f565b610ab5565b005b3480156100fd57600080fd5b506101186004803603810190610113919061159f565b610f6d565b005b34801561012657600080fd5b50610141600480360381019061013c919061159f565b61129e565b6040516101549796959493929190611742565b60405180910390f35b60003330878787604051602001610178959493929190611821565b60405160208183030381529060405280519060200120905060608060405180610120016040528084815260200186868080601f016020809104026020016040519081016040528093929190818152602001838380828437600081840152601f19601f8201169050808301925050505050505081526020013373ffffffffffffffffffffffffffffffffffffffff168152602001898152602001878152602001888152602001838152602001828152602001600015158152506000808581526020019081526020016000206000820151816000015560208201518160010190816102619190611abb565b5060408201518160020160006101000a81548173ffffffffffffffffffffffffffffffffffffffff021916908373ffffffffffffffffffffffffffffffffffffffff160217905550606082015181600301556080820151816004015560a0820151816005015560c08201518160060190805190602001906102e3929190611395565b5060e0820151816007019080519060200190610300929190611395565b506101008201518160080160006101000a81548160ff0219169083151502179055509050507f4f0a4f95aceb252193281f35ba10faa4dbf34401f23b006fb2e79666a82834b183338a898b8a8a6040516103609796959493929190611bc9565b60405180910390a15050505050505050565b60008060008381526020019081526020016000209050806005015434146103ce576040517f08c379a00000000000000000000000000000000000000000000000000000000081526004016103c590611c7f565b60405180910390fd5b8060030154421115610415576040517f08c379a000000000000000000000000000000000000000000000000000000000815260040161040c90611ceb565b60405180910390fd5b8060040154816006018054905010610462576040517f08c379a000000000000000000000000000000000000000000000000000000000815260040161045990611d57565b60405180910390fd5b60005b81600601805490508160ff16101561053b573373ffffffffffffffffffffffffffffffffffffffff16826006018260ff16815481106104a7576104a6611d77565b5b9060005260206000200160009054906101000a900473ffffffffffffffffffffffffffffffffffffffff1673ffffffffffffffffffffffffffffffffffffffff1603610528576040517f08c379a000000000000000000000000000000000000000000000000000000000815260040161051f90611df2565b60405180910390fd5b808061053390611e4e565b915050610465565b5080600601339080600181540180825580915050600190039060005260206000200160009091909190916101000a81548173ffffffffffffffffffffffffffffffffffffffff021916908373ffffffffffffffffffffffffffffffffffffffff1602179055507fb79f4240bbdd272d98e02a5db7f0cf156e5fc000961c517670a26eeeec63ed9082336040516105d2929190611e77565b60405180910390a15050565b600080600084815260200190815260200160002090508060020160009054906101000a900473ffffffffffffffffffffffffffffffffffffffff1673ffffffffffffffffffffffffffffffffffffffff163373ffffffffffffffffffffffffffffffffffffffff1614610686576040517f08c379a000000000000000000000000000000000000000000000000000000000815260040161067d90611eec565b60405180910390fd5b600080600090505b82600601805490508160ff161015610770578373ffffffffffffffffffffffffffffffffffffffff16836006018260ff16815481106106d0576106cf611d77565b5b9060005260206000200160009054906101000a900473ffffffffffffffffffffffffffffffffffffffff1673ffffffffffffffffffffffffffffffffffffffff160361075d57826006018160ff168154811061072f5761072e611d77565b5b9060005260206000200160009054906101000a900473ffffffffffffffffffffffffffffffffffffffff1691505b808061076890611e4e565b91505061068e565b508273ffffffffffffffffffffffffffffffffffffffff168173ffffffffffffffffffffffffffffffffffffffff16146107df576040517f08c379a00000000000000000000000000000000000000000000000000000000081526004016107d690611f58565b60405180910390fd5b60005b82600701805490508160ff1610156108b8578373ffffffffffffffffffffffffffffffffffffffff16836007018260ff168154811061082457610823611d77565b5b9060005260206000200160009054906101000a900473ffffffffffffffffffffffffffffffffffffffff1673ffffffffffffffffffffffffffffffffffffffff16036108a5576040517f08c379a000000000000000000000000000000000000000000000000000000000815260040161089c90611fc4565b60405180910390fd5b80806108b090611e4e565b9150506107e2565b50600015158260080160009054906101000a900460ff16151514610911576040517f08c379a000000000000000000000000000000000000000000000000000000000815260040161090890612030565b60405180910390fd5b81600701839080600181540180825580915050600190039060005260206000200160009091909190916101000a81548173ffffffffffffffffffffffffffffffffffffffff021916908373ffffffffffffffffffffffffffffffffffffffff16021790555060008373ffffffffffffffffffffffffffffffffffffffff1683600501546040516109a090612081565b60006040518083038185875af1925050503d80600081146109dd576040519150601f19603f3d011682016040523d82523d6000602084013e6109e2565b606091505b5050905080610a3557826007018054806109ff576109fe612096565b5b6001900381819060005260206000200160006101000a81549073ffffffffffffffffffffffffffffffffffffffff021916905590555b80610a75576040517f08c379a0000000000000000000000000000000000000000000000000000000008152600401610a6c90612111565b60405180910390fd5b7ff8d1583a733d83bdd3ef5464129d0a95a36d62b382d31c6d0467a61f4264381b8585604051610aa6929190611e77565b60405180910390a15050505050565b60008060008381526020019081526020016000206040518061012001604052908160008201548152602001600182018054610aef906118de565b80601f0160208091040260200160405190810160405280929190818152602001828054610b1b906118de565b8015610b685780601f10610b3d57610100808354040283529160200191610b68565b820191906000526020600020905b815481529060010190602001808311610b4b57829003601f168201915b505050505081526020016002820160009054906101000a900473ffffffffffffffffffffffffffffffffffffffff1673ffffffffffffffffffffffffffffffffffffffff1673ffffffffffffffffffffffffffffffffffffffff16815260200160038201548152602001600482015481526020016005820154815260200160068201805480602002602001604051908101604052809291908181526020018280548015610c6a57602002820191906000526020600020905b8160009054906101000a900473ffffffffffffffffffffffffffffffffffffffff1673ffffffffffffffffffffffffffffffffffffffff1681526020019060010190808311610c20575b5050505050815260200160078201805480602002602001604051908101604052809291908181526020018280548015610cf857602002820191906000526020600020905b8160009054906101000a900473ffffffffffffffffffffffffffffffffffffffff1673ffffffffffffffffffffffffffffffffffffffff1681526020019060010190808311610cae575b505050505081526020016008820160009054906101000a900460ff161515151581525050905080610100015115610d64576040517f08c379a0000000000000000000000000000000000000000000000000000000008152600401610d5b9061217d565b60405180910390fd5b62093a808160600151610d77919061219d565b421015610db9576040517f08c379a0000000000000000000000000000000000000000000000000000000008152600401610db09061221d565b60405180910390fd5b806040015173ffffffffffffffffffffffffffffffffffffffff163373ffffffffffffffffffffffffffffffffffffffff1614610e2b576040517f08c379a0000000000000000000000000000000000000000000000000000000008152600401610e2290612289565b60405180910390fd5b60008160e00151518260c0015151610e4391906122a9565b905060008260a0015182610e5791906122dd565b905060018361010001901515908115158152505060003373ffffffffffffffffffffffffffffffffffffffff1682604051610e9190612081565b60006040518083038185875af1925050503d8060008114610ece576040519150601f19603f3d011682016040523d82523d6000602084013e610ed3565b606091505b5050905080610eef576000846101000190151590811515815250505b80610f2f576040517f08c379a0000000000000000000000000000000000000000000000000000000008152600401610f2690612111565b60405180910390fd5b7f393073ea1365f611c3d2f240c992960d2b99dc81715555d3fc40fc55ba80af9c85604051610f5e919061231f565b60405180910390a15050505050565b60008060008381526020019081526020016000206040518061012001604052908160008201548152602001600182018054610fa7906118de565b80601f0160208091040260200160405190810160405280929190818152602001828054610fd3906118de565b80156110205780601f10610ff557610100808354040283529160200191611020565b820191906000526020600020905b81548152906001019060200180831161100357829003601f168201915b505050505081526020016002820160009054906101000a900473ffffffffffffffffffffffffffffffffffffffff1673ffffffffffffffffffffffffffffffffffffffff1673ffffffffffffffffffffffffffffffffffffffff1681526020016003820154815260200160048201548152602001600582015481526020016006820180548060200260200160405190810160405280929190818152602001828054801561112257602002820191906000526020600020905b8160009054906101000a900473ffffffffffffffffffffffffffffffffffffffff1673ffffffffffffffffffffffffffffffffffffffff16815260200190600101908083116110d8575b50505050508152602001600782018054806020026020016040519081016040528092919081815260200182805480156111b057602002820191906000526020600020905b8160009054906101000a900473ffffffffffffffffffffffffffffffffffffffff1673ffffffffffffffffffffffffffffffffffffffff1681526020019060010190808311611166575b505050505081526020016008820160009054906101000a900460ff1615151515815250509050806040015173ffffffffffffffffffffffffffffffffffffffff163373ffffffffffffffffffffffffffffffffffffffff1614611248576040517f08c379a000000000000000000000000000000000000000000000000000000000815260040161123f90611eec565b60405180910390fd5b60005b8160c00151518160ff16101561129957611286838360c001518360ff168151811061127957611278611d77565b5b60200260200101516105de565b808061129190611e4e565b91505061124b565b505050565b60006020528060005260406000206000915090508060000154908060010180546112c7906118de565b80601f01602080910402602001604051908101604052809291908181526020018280546112f3906118de565b80156113405780601f1061131557610100808354040283529160200191611340565b820191906000526020600020905b81548152906001019060200180831161132357829003601f168201915b5050505050908060020160009054906101000a900473ffffffffffffffffffffffffffffffffffffffff16908060030154908060040154908060050154908060080160009054906101000a900460ff16905087565b82805482825590600052602060002090810192821561140e579160200282015b8281111561140d5782518260006101000a81548173ffffffffffffffffffffffffffffffffffffffff021916908373ffffffffffffffffffffffffffffffffffffffff160217905550916020019190600101906113b5565b5b50905061141b919061141f565b5090565b5b80821115611438576000816000905550600101611420565b5090565b600080fd5b600080fd5b6000819050919050565b61145981611446565b811461146457600080fd5b50565b60008135905061147681611450565b92915050565b600080fd5b600080fd5b600080fd5b60008083601f8401126114a1576114a061147c565b5b8235905067ffffffffffffffff8111156114be576114bd611481565b5b6020830191508360018202830111156114da576114d9611486565b5b9250929050565b6000806000806000608086880312156114fd576114fc61143c565b5b600061150b88828901611467565b955050602061151c88828901611467565b945050604061152d88828901611467565b935050606086013567ffffffffffffffff81111561154e5761154d611441565b5b61155a8882890161148b565b92509250509295509295909350565b6000819050919050565b61157c81611569565b811461158757600080fd5b50565b60008135905061159981611573565b92915050565b6000602082840312156115b5576115b461143c565b5b60006115c38482850161158a565b91505092915050565b600073ffffffffffffffffffffffffffffffffffffffff82169050919050565b60006115f7826115cc565b9050919050565b611607816115ec565b811461161257600080fd5b50565b600081359050611624816115fe565b92915050565b600080604083850312156116415761164061143c565b5b600061164f8582860161158a565b925050602061166085828601611615565b9150509250929050565b61167381611569565b82525050565b600081519050919050565b600082825260208201905092915050565b60005b838110156116b3578082015181840152602081019050611698565b60008484015250505050565b6000601f19601f8301169050919050565b60006116db82611679565b6116e58185611684565b93506116f5818560208601611695565b6116fe816116bf565b840191505092915050565b611712816115ec565b82525050565b61172181611446565b82525050565b60008115159050919050565b61173c81611727565b82525050565b600060e082019050611757600083018a61166a565b818103602083015261176981896116d0565b90506117786040830188611709565b6117856060830187611718565b6117926080830186611718565b61179f60a0830185611718565b6117ac60c0830184611733565b98975050505050505050565b60008160601b9050919050565b60006117d0826117b8565b9050919050565b60006117e2826117c5565b9050919050565b6117fa6117f5826115ec565b6117d7565b82525050565b6000819050919050565b61181b61181682611446565b611800565b82525050565b600061182d82886117e9565b60148201915061183d82876117e9565b60148201915061184d828661180a565b60208201915061185d828561180a565b60208201915061186d828461180a565b6020820191508190509695505050505050565b7f4e487b7100000000000000000000000000000000000000000000000000000000600052604160045260246000fd5b7f4e487b7100000000000000000000000000000000000000000000000000000000600052602260045260246000fd5b600060028204905060018216806118f657607f821691505b602082108103611909576119086118af565b5b50919050565b60008190508160005260206000209050919050565b60006020601f8301049050919050565b600082821b905092915050565b6000600883026119717fffffffffffffffffffffffffffffffffffffffffffffffffffffffffffffffff82611934565b61197b8683611934565b95508019841693508086168417925050509392505050565b6000819050919050565b60006119b86119b36119ae84611446565b611993565b611446565b9050919050565b6000819050919050565b6119d28361199d565b6119e66119de826119bf565b848454611941565b825550505050565b600090565b6119fb6119ee565b611a068184846119c9565b505050565b5b81811015611a2a57611a1f6000826119f3565b600181019050611a0c565b5050565b601f821115611a6f57611a408161190f565b611a4984611924565b81016020851015611a58578190505b611a6c611a6485611924565b830182611a0b565b50505b505050565b600082821c905092915050565b6000611a9260001984600802611a74565b1980831691505092915050565b6000611aab8383611a81565b9150826002028217905092915050565b611ac482611679565b67ffffffffffffffff811115611add57611adc611880565b5b611ae782546118de565b611af2828285611a2e565b600060209050601f831160018114611b255760008415611b13578287015190505b611b1d8582611a9f565b865550611b85565b601f198416611b338661190f565b60005b82811015611b5b57848901518255600182019150602085019450602081019050611b36565b86831015611b785784890151611b74601f891682611a81565b8355505b6001600288020188555050505b505050505050565b82818337600083830152505050565b6000611ba88385611684565b9350611bb5838584611b8d565b611bbe836116bf565b840190509392505050565b600060c082019050611bde600083018a61166a565b611beb6020830189611709565b611bf86040830188611718565b611c056060830187611718565b611c126080830186611718565b81810360a0830152611c25818486611b9c565b905098975050505050505050565b7f4e6f7420456e6f75676800000000000000000000000000000000000000000000600082015250565b6000611c69600a83611684565b9150611c7482611c33565b602082019050919050565b60006020820190508181036000830152611c9881611c5c565b9050919050565b7f414c52454144592048415050454e454400000000000000000000000000000000600082015250565b6000611cd5601083611684565b9150611ce082611c9f565b602082019050919050565b60006020820190508181036000830152611d0481611cc8565b9050919050565b7f54686973206576656e7420686173207265616368656420636170616369747900600082015250565b6000611d41601f83611684565b9150611d4c82611d0b565b602082019050919050565b60006020820190508181036000830152611d7081611d34565b9050919050565b7f4e487b7100000000000000000000000000000000000000000000000000000000600052603260045260246000fd5b7f414c524541445920434f4e4649524d4544000000000000000000000000000000600082015250565b6000611ddc601183611684565b9150611de782611da6565b602082019050919050565b60006020820190508181036000830152611e0b81611dcf565b9050919050565b7f4e487b7100000000000000000000000000000000000000000000000000000000600052601160045260246000fd5b600060ff82169050919050565b6000611e5982611e41565b915060ff8203611e6c57611e6b611e12565b5b600182019050919050565b6000604082019050611e8c600083018561166a565b611e996020830184611709565b9392505050565b7f4e4f5420415554484f52495a4544000000000000000000000000000000000000600082015250565b6000611ed6600e83611684565b9150611ee182611ea0565b602082019050919050565b60006020820190508181036000830152611f0581611ec9565b9050919050565b7f4e4f205253565020544f20434f4e4649524d0000000000000000000000000000600082015250565b6000611f42601283611684565b9150611f4d82611f0c565b602082019050919050565b60006020820190508181036000830152611f7181611f35565b9050919050565b7f414c524541445920434c41494d45440000000000000000000000000000000000600082015250565b6000611fae600f83611684565b9150611fb982611f78565b602082019050919050565b60006020820190508181036000830152611fdd81611fa1565b9050919050565b7f414c52454144592050414944204f555400000000000000000000000000000000600082015250565b600061201a601083611684565b915061202582611fe4565b602082019050919050565b600060208201905081810360008301526120498161200d565b9050919050565b600081905092915050565b50565b600061206b600083612050565b91506120768261205b565b600082019050919050565b600061208c8261205e565b9150819050919050565b7f4e487b7100000000000000000000000000000000000000000000000000000000600052603160045260246000fd5b7f4661696c656420746f2073656e64204574686572000000000000000000000000600082015250565b60006120fb601483611684565b9150612106826120c5565b602082019050919050565b6000602082019050818103600083015261212a816120ee565b9050919050565b7f414c524541445920504149440000000000000000000000000000000000000000600082015250565b6000612167600c83611684565b915061217282612131565b602082019050919050565b600060208201905081810360008301526121968161215a565b9050919050565b60006121a882611446565b91506121b383611446565b92508282019050808211156121cb576121ca611e12565b5b92915050565b7f544f4f204541524c590000000000000000000000000000000000000000000000600082015250565b6000612207600983611684565b9150612212826121d1565b602082019050919050565b60006020820190508181036000830152612236816121fa565b9050919050565b7f4d555354204245204556454e54204f574e455200000000000000000000000000600082015250565b6000612273601383611684565b915061227e8261223d565b602082019050919050565b600060208201905081810360008301526122a281612266565b9050919050565b60006122b482611446565b91506122bf83611446565b92508282039050818111156122d7576122d6611e12565b5b92915050565b60006122e882611446565b91506122f383611446565b925082820261230181611446565b9150828204841483151761231857612317611e12565b5b5092915050565b6000602082019050612334600083018461166a565b9291505056fea264697066735822122033c556f1bd49493ae14c34d446b9acad3ecaf71595c1cfb1971223a4fb6e330564736f6c63430008110033",
    "linkReferences": {},
    "deployedLinkReferences": {}
}